:10000000216BC0E090016D758000E5109375A0082C
:10001000F580758000E5119375A004F5807580006A
:10002000E5129375A002F580758000E5139375A025
:1000300001F580D0E02275A00022C0D0C083C0822C
:10004000C0E0C0F07590F0E590B4F0028026F5F0C5
:10005000440FF590E590900180540F42F07A00EA49
:1000600093B5F00C8A147590F0E590B4F0F8800721
:100070000ABA10EB7514FFD0F0D0E0D082D083D054
:10008000D0227510007511007512007513007515DA
:100090000075160075170075180075200022751080
:1000A00000751100751200751300C0E0C0F075F006
:1000B0000A8485F01375F00A8485F01275F00A84BD
:1000C00085F011D0F0D0E0227581401136113AE56B
:1000D00014B4FF028018B4090280154013B40D0255
:1000E000802D402BB40E02802DB40F02802C215D98
:1000F00020020EE51675F00AA42514F516119E804F
:100100005CE51775F00AA42514F517119E804E853D
:100110001415D202804711828043E515B40A02808B
:100120000AB40B028011B40C258018C3E51685179C
:10013000F035F0F5188022C3E5168517F095F0F537
:0A014000188016C3E5168517F0A419
:10014A00F518800BC3E5168517F084F5188000E5CD
:10015A0018119E110201CB227580FF75A00380FE43
:10016A002211C83F065B4F666D7D077F6F777C392A
:10017A005E79713D7640777B7D7EB7BBBDBED7DBAE
:06018A00DDDEE7EBEDEE07
:00000001FF
